{
  "contractName": "Ethereum",
  "abi": [
    {
      "constant": true,
      "inputs": [],
      "name": "get",
      "outputs": [
        {
          "name": "",
          "type": "uint256"
        }
      ],
      "payable": false,
      "stateMutability": "view",
      "type": "function"
    },
    {
      "constant": false,
      "inputs": [
        {
          "name": "x",
          "type": "uint256"
        }
      ],
      "name": "create",
      "outputs": [],
      "payable": false,
      "stateMutability": "nonpayable",
      "type": "function"
    }
  ],
  "bytecode": "0x608060405234801561001057600080fd5b5060e68061001f6000396000f3fe6080604052600436106043576000357c0100000000000000000000000000000000000000000000000000000000900480636d4ce63c146048578063780900dc146070575b600080fd5b348015605357600080fd5b50605a60a7565b6040518082815260200191505060405180910390f35b348015607b57600080fd5b5060a560048036036020811015609057600080fd5b810190808035906020019092919050505060b0565b005b60008054905090565b806000819055505056fea165627a7a723058209504bcfd2952e3d41aa1afbaca2eac7f47523b3a8074695da59118b83fc36be70029",
  "source": "pragma solidity >=0.4.22 <0.9.0;\n\ncontract Ethereum {\n\tuint256 storedData;\n\n\tfunction get() public view returns (uint256) {\n\t\treturn storedData;\n\t}\n\n\tfunction create(uint256 x) public {\n\t\tstoredData = x;\n\t}\n}\n",
  "sourcePath": "C:\\Users\\tatsumi\\Desktop\\nft-api-contract\\contracts\\Ethereum.sol",
  "compiler": {
    "name": "solc",
    "version": "0.5.1+commit.c8a2cb62.Emscripten.clang"
  },
  "schemaVersion": "3.4.16",
  "updatedAt": "2024-06-20T15:32:59.969Z",
  "networkType": "ethereum",
  "devdoc": {
    "methods": {}
  },
  "userdoc": {
    "methods": {}
  }
}